:020000040800F2
:10000000A83000209D0100084D9200080935000825
:10001000FD8B0008ED0B00088DDA000800000000E1
:10002000000000000000000000000000359C0008F7
:10003000851A0008000000007199000819B1000835
:10004000B7010008B7010008B7010008B7010008B0
:10005000B7010008B7010008B7010008B7010008A0
:10006000551C00088D1C0008C51C0008B7010008BD
:10007000DD1600082D17000829180008511800087F
:10008000B7010008B7010008B7010008B701000870
:10009000B7010008B7010008B7010008FD1C0008FF
:1000A000B7010008B7010008B7010008B701000850
:1000B000B7010008E9B10008B7010008B70100085E
:1000C000B7010008B7010008B7010008B701000830
:1000D000B70100088DCF0008B9CF0008B7010008AC
:1000E000B7010008B7010008B70100080DB3000808
:1000F000B7010008B7010008B7010008B701000800
:10010000B7010008B7010008B7010008B7010008EF
:10011000B7010008B7010008B7010008B7010008DF
:1001200079180008B7010008ED180008B7010008A9
:10013000B7010008B7010008B7010008B7010008BF
:10014000F10B0008510C0008B7010008B7010008C6
:10015000B70100080D190008B7010008B701000831
:10016000B7010008B7010008B7010008B70100088F
:10017000B7010008B7010008B7010008B70100087F
:10018000B7010008B7010008DFF80CD000F0E6FB6B
:1001900000480047C9F60008A830002006488047FC
:1001A00006480047FEE7FEE7FEE7FEE7FEE7FEE75C
:1001B000FEE7FEE7FEE7FEE71DB100088901000843
:1001C00040EA01039B0703D009E008C9121F08C0D9
:1001D000042AFAD203E011F8013B00F8013B521E59
:1001E000F9D27047D2B201E000F8012B491EFBD2D0
:1001F00070470022F6E710B513460A460446194632
:10020000FFF7F0FF204610BD2DE9FE4F804681EA42
:100210000300C00F0C46009021F0004123F0004580
:10022000B8EB0200A94105D24046214690461C4643
:100230000B46024623F00040104347D0270DC7F37A
:100240000A00C3F30A510290401A019040286BDA69
:10025000C3F3130040F4801B0098924620B10023A2
:10026000D2EB030A63EB0B0B01985946C0F1400235
:10027000504600F044FA06460D4650465946019A4B
:1002800000F05CFA10EB08006141002487EA11528B
:1002900084EAE7731A4340D0009A62B3019A012AB4
:1002A0004FEA075215DC001B61EB02014FF00042E0
:1002B00002EA0752CDE90042001C41F580113246A6
:1002C0002B4600F093FA03B0BDE8F08F404621467C
:1002D000F9E7001B61EB0201001C41F580130018D7
:1002E0005B412018A2F5001747EB030140EAD570E7
:1002F000B6196D4111E06D084FEA360645EAC07542
:100300004FEA0752001B61EB0201001C41F580110E
:1003100049084FEA30000019514132462B4603B0DC
:10032000BDE8F04F00F053BA0098012240000023CE
:10033000D0EB020263EBE073009821464FEAE074D1
:10034000B8EB000061EB0401E9E783F000435BE7F1
:1003500081F0004158E72DE9FE4F81EA030404F0E3
:10036000004421F0004100944FF0000B23F00043C3
:1003700050EA01045ED052EA03045BD0C3F30A548E
:10038000C1F30A552C44A4F2F3340194A0FB0254A7
:10039000C1F3130141F48011C3F3130343F4801339
:1003A00001FB024400FB034E840A970A44EA81548D
:1003B00047EA8357A4FB076802958D0A05FB07856A
:1003C0004FEA932C04FB0C542705029D4FEA065874
:1003D00047EA1637B5EB08056EEB070C870E920E51
:1003E00047EA811742EA8312A7FB0201B6EB0B0131
:1003F00064EB00042B0D43EA0C335E1844EB1C50F5
:10040000DA465146E7FB0201C5F313044FEA0B330A
:1004100043EA14534FEA0432019C43EA0603A4F171
:100420000C040294009CCDE900B400F0DFF903B0A5
:10043000BDE8F08F00200146F9E72DE9F04D81EA93
:10044000030404F0004B21F0004514464FF0000A6D
:1004500023F0004150EA050220D054EA01021DD0E9
:10046000C5F30A570246C5F31303C1F31300C1F3E2
:100470000A5640F4801543F48013A7EB0608101BBE
:10048000D64608F2FD3873EB050002D308F10108E7
:1004900001E092185B41B8F1000F03DA0020014639
:1004A000BDE8F08D00204FF48011064684460EE032
:1004B000171B73EB050705D3121B63EB05030643FC
:1004C0004CEA010C49084FEA300092185B4150EAAF
:1004D0000107EDD152EA030012D082EA040083EA58
:1004E0000501084305D0101BAB4106D201220023B1
:1004F00006E000224FF0004302E06FF001025310CB
:100500001AEB06004CEB085110EB0A0041EB0B0113
:10051000BDE8F04D00F05BB9F0B4CA17CB0F504006
:100520005140C61841F100054FEAC3723146280018
:100530004FF0960303D0B623F0BC00F01AB9304652
:100540000021F9E70EB5C10F80EAE0700844CA0740
:10055000002140F233438DE80E000A460B4600F0BE
:1005600045F903B000BD0EB540F2334102910021C0
:10057000CDE900110A460B4600F038F903B000BD82
:10058000C1F30A5210B5C1F3130140F2FF3341F435
:1005900080119A4201DA002010BD40F233439A42A2
:1005A000A2F2334203DC524200F0B8F810BD904092
:1005B00010BD00F0004230F000400AD0C10D01F53E
:1005C0006071C0F3160042EA0151C20840071143AE
:1005D000704700200146704730B5041E71F10004D9
:1005E00004DB4FF00044404264EB0101141E73F140
:1005F000000405DB1C464FF00043524263EB04034A
:100600008B4208BF824230BD30B5041E71F1000438
:1006100004DB4FF00044404264EB0101141E73F10F
:10062000000405DB1C464FF00043524263EB040319
:10063000994208BF904230BD01F0004330B421F030
:10064000004150EA010206D00A0DA2F56072C1F322
:100650001301002A02DC30BC00207047440F44EA3A
:10066000C104C100E01830BC00EBC25000F078B803
:1006700030B50B46014600202022012409E021FA72
:1006800002F59D4205D303FA02F5491B04FA02F56F
:100690002844151EA2F10102F1DC30BD2DE9F05F06
:1006A0000546002092469B468846064681464024E1
:1006B0001BE0284641464746224600F02FF85346A5
:1006C0005A46C01A914110D311461846224600F0EE
:1006D00016F82D1A67EB01084F462246012000212B
:1006E00000F00DF817EB00094E41201EA4F10104A3
:1006F000DFDC484631462A464346BDE8F09F202AC3
:1007000004DB203A00FA02F1002070479140C2F168
:10071000200320FA03F3194390407047202A04DB9A
:10072000203A21FA02F00021704721FA02F3D0406A
:10073000C2F120029140084319467047202A06DB87
:10074000CB17203A41FA02F043EAE07306E041FA9F
:1007500002F3D040C2F1200291400843194670478D
:100760000029A8BF7047401C490008BF20F00100C5
:10077000704710B4B0FA80FC00FA0CF050EA0104A3
:1007800004BF10BC704749B1CCF1200421FA04F435
:1007900011FA0CF118BF012121430843A3EB0C010E
:1007A000CB1D4FEA00614FEA102042BF002010BC71
:1007B000704700EBC35010440029A4BF10BC704721
:1007C000401C490008BF20F0010010BC704710B564
:1007D000141E73F1000408DA401C41F10001921864
:1007E0005B411A4301D120F0010010BD2DE9F04D0D
:1007F00092469B4611B1B1FA81F202E0B0FA80F262
:1008000020329046FFF77BFF04460F4640EA0A007D
:1008100041EA0B0153465A46084313D0114653EAA6
:10082000010019D0C8F140025046FFF777FF054696
:100830000E46504659464246FFF761FF084305D031
:10084000012004E020463946BDE8F08D0020054334
:1008500046EAE0762C4337430A986305E40AA0EBA6
:1008600008000022FD0A44EA47540A3002D500205D
:100870000146E9E7010510196941DDE9084500195C
:100880006941BDE8F04DA2E72DE9F04D00231A467D
:100890001B1A8A4103DB00200146BDE8F08DC1F33D
:1008A0000A52C1F3130141F480154FF0000BD10738
:1008B00002D100186D41521E0027044640F2FF117C
:1008C000384601EB620A3E468046024600204FF45D
:1008D0008011FFF723FFC2197141BB1846EB0100DD
:1008E000B4EB030C75EB000C04D3E41A65EB0005C4
:1008F00017460E46241908F101006D418046342840
:10090000E3DDF91946EB0600091BA84103D24FF0BD
:10091000FF32134601E0002213461BEB070046EBB3
:100920000A51BDE8F04DFFF752BFC1F30A52C1F3BF
:10093000130140F2FF3341F480119A4202DA0020A1
:100940000146704740F233439A42A2F2334202DC3E
:100950005242FFF7E3BEFFF7D2BE0000064C074D40
:1009600006E0E06840F0010394E80700984710347F
:10097000AC42F6D3FFF70CFCFCEE01081CEF0108BB
:1009800070B5C1F30A5201F000450024C1F3130110
:1009900040F2FF3341F480119A4201DA002070BD29
:1009A00040F233439A42A2F2334203DC5242FFF751
:1009B000B5FE00E090402C43F1D0404270BD70B5D0
:1009C0008C1810F8015B15F0070301D110F8013BFA
:1009D0002A1106D110F8012B03E010F8016B01F881
:1009E000016B5B1EF9D12B0705D40023521E0DD4D9
:1009F00001F8013BFAE710F8013BCB1A921C03E027
:100A000013F8015B01F8015B521EF9D5A142D8D35E
:100A1000002070BD816841F0804181607047000016
:100A200010B52DED108B82B0B0EE408AF0EE608AEA
:100A300004469FED650BB0EE409AF0EE609A9FED94
:100A4000620BB0EE40AAF0EE60AA9FED5F0BB0EE35
:100A500040BAF0EE60BA9FED5C0B8DED000B94EDAB
:100A6000021BB0EE410AF0EE610A53EC102B9FED31
:100A7000581B51EC110BFFF7E0FC41EC1E0B9FEDF6
:100A8000540B53EC102BFFF7BFFB41EC1D0B94ED07
:100A9000041BB0EE410AF0EE610A53EC102BFFF795
:100AA000B3FB41EC1C0B94ED001BB0EE410AF0EEE1
:100AB000610A53EC102BFFF74EFC41EC190B94ED3F
:100AC000041BB0EE410AF0EE610A53EC102B9FEDCF
:100AD000421B51EC110BFFF73EFC41EC1D0B9FED4F
:100AE0003C0B53EC102BFFF78FFB41EC1C0B94EDF0
:100AF000001BB0EE410AF0EE610A51EC100B81F0E0
:100B0000004141EC1E0B53EC1C2BFFF724FC41EC85
:100B10001A0B94ED042BB0EE420AF0EE620A94ED4B
:100B2000002BB0EE421AF0EE621A53EC102B51EC8F
:100B3000110BFFF710FC41EC1B0B294890ED000B4B
:100B400053EC102B51EC1B0BFFF705FC41EC1C0B7D
:100B5000244890ED000B53EC102B51EC1A0BFFF7CF
:100B6000FAFB41EC1E0B53EC192B51EC180BFFF761
:100B7000F2FB41EC1F0B53EC1E2BFFF745FB41EC46
:100B80001D0B53EC1C2BFFF73FFBCDE900019DED46
:100B9000000B53EC102B144890ED000B51EC100B94
:100BA000FFF732FB104A03C20E4890ED000B0C48D1
:100BB00080ED000B0B4880ED008B0B4890ED000B97
:100BC00002B0BDEC108B10BD000000000000000062
:100BD000000000000000F03F0000000000000040A6
:100BE00030220020282200203822002000BFFEE70B
:100BF00010B586B001AA0021124800F0C0F9002407
:100C00000FE00DF10F00005D0F4A019932F811104D
:100C100001EB81010D4A02EB810149680855601C16
:100C2000C4B29DF80E00A042EBDC074A019932F8ED
:100C3000111001EB8101054A02EB8101C868804770
:100C400006B010BD00680040E002002090020020C5
:100C500010B586B001AA0121124800F090F90024D5
:100C60000FE00DF10F00005D0F4A019932F81110ED
:100C700001EB81010D4A02EB810149680855601CB6
:100C8000C4B29DF80E00A042EBDC074A019932F88D
:100C9000111001EB8101054A02EB8101C868804710
:100CA00006B010BD00680040E00200209002002065
:100CB0000EB50121480608F07DFE154800F02CF81D
:100CC0000121880608F076FE124800F025F8002081
:100CD0008DF806008DF807008DF808008DF80900E2
:100CE0008DF80A0001208DF80B0000208DF802001D
:100CF00001208DF8030002208DF804008DF8050016
:100D00000620ADF800006946024800F0AEF80EBDBE
:100D1000006400400068004010B504460B4884425F
:100D200009D10121480608F055FE00214FF000705E
:100D300008F050FE08E00121880608F04BFE002173
:100D40004FF0806008F046FE10BD000000640040D7
:100D500010B50021837A012202FA03F13D4A12689C
:100D600042F001023B4B1A603A4A1C3212688A4335
:100D7000384B1C331A60027BCAB9364A0C321268EF
:100D80008A43344B0C331A604288C38842EA0343D7
:100D9000304A4032847A42F834300288838842EA0A
:100DA00003432C4A4032847A02EBC4025360027B34
:100DB000012A19D1274A0C3212680A43254B0C33F9
:100DC0001A604288038842EA0343224A4032847A06
:100DD00042F83430C288838842EA03431D4A4032D5
:100DE000847A02EBC4025360C27A3AB9194A121DDE
:100DF00012688A43174B1B1D1A6006E0154A121D24
:100E000012680A43134B1B1D1A60028932B9114A3A
:100E1000143212688A430F4B14331A600289012A74
:100E200006D10C4A143212680A430A4B14331A6072
:100E3000427B012A06D1074A1C3212680A43054B3D
:100E40001C331A60034A126822F00102014B1A6037
:100E500010BD0000006600401AB143690B434361B6
:100E600002E043698B434361704730B5024600207E
:100E70000023146824F002041460146844F0010490
:100E8000146000E05B1C546804F001041CB94FF6C8
:100E9000FF74A342F6D1546804F001040CB9002099
:100EA0006CE08C79012C04D1146844F08004146047
:100EB00003E0146824F080041460CC79012C04D180
:100EC000146844F04004146003E0146824F0400403
:100ED00014600C7A012C04D1146844F020041460CE
:100EE00003E0146824F0200414604C7A012C04D12F
:100EF000146844F01004146003E0146824F0100433
:100F000014608C7A012C04D1146844F00804146035
:100F100003E0146824F008041460CC7A012C04D196
:100F2000146844F00404146003E0146824F004041A
:100F300014608C78A407CD7844EA05640D7944EAFE
:100F400005444D7944EA05540D886D1E2C43D46147
:100F5000146824F001041460002300E05B1C546852
:100F600004F001041CB14FF6FF74A342F6D154689B
:100F700004F001040CB1002000E0012030BD10B5E8
:100F800000F5D87303EB01131B6803F0040313721D
:100F9000137A53B900F5D87303EB01131B6840F2C1
:100FA000FF7404EA5353136009E000F5D87303EBB0
:100FB00001131B686FF0604404EAD303536000F52B
:100FC000D87303EB01131B6803F00203537200F59F
:100FD000D87303EB01135B6803F00F03937200F502
:100FE000D87303EB01135B681B0AD37400F5D87345
:100FF00003EB01139B68D37200F5D87303EB011365
:101000009B681C0A147300F5D87303EB01139B68EB
:101010001C0C547300F5D87303EB01139B681B0E73
:10102000937300F5D87303EB0113DB68D37300F5FA
:10103000D87303EB0113DB681C0A147400F5D87332
:1010400003EB0113DB681C0C547400F5D87303EB3D
:101050000113DB681B0E937421B9C36843F02003AE
:10106000C36003E0036943F02003036110BD000087
:101070000B49096841F00101094A116011460968EC
:1010800043F60E729143064A11601146096841EA1F
:10109000002111601146096821F0010111607047BB
:1010A0000066004010B502460020936803F080639C
:1010B000B3F1806F00D110E0936803F00063B3F1E7
:1010C000006F01D1012008E0936803F08053B3F171
:1010D000805F01D1022000E00420042874D002F5D2
:1010E000C07303EB00131B6803F0010402F5C07327
:1010F00003EB00131C600B7A7BB94B7A0C8843EA34
:10110000445302F5C07404EB00142468234302F531
:10111000C07404EB0014236010E00B7A4C6843EABF
:10112000C4034C7A234302F5C07404EB0014246812
:10113000234302F5C07404EB001423608B7A03F0A0
:101140000F038B7202F5C07303EB00135B6823F08F
:101150000F0402F5C07303EB00135C6002F5C0736B
:1011600003EB00135B688C7A234302F5C07404EB35
:10117000001463608B7B1C064B7B44EA03440B7BAF
:1011800044EA0323CC7A234302F5C07404EB001431
:10119000A3608B7C1C064B7C44EA03440B7C44EA32
:1011A0000323CC7B234302F5C07404EB0014E360FB
:1011B00002F5C07303EB00131B6843F0010402F552
:1011C000C07303EB00131C6010BD10B502F09EF954
:1011D00000F056FA00F024FAFFF76AFD00F05CF820
:1011E00000F040FA10BD000010B50446234804701A
:1011F000002123480CF037FC0A200EF035F920219D
:101200001F480BF0B9FF072C2ED2DFE804F02D04A5
:1012100015262728290000201A4908701A498870C5
:101220004870087019498870487008701849C8706B
:1012300088704870087018E0002012490870124940
:10124000887048700870114988704870087010499B
:10125000C87088704870087007E000BF00BF00BF0A
:1012600000200C49087000E000BF00BF2146044880
:101270000CF0F9FB0A200EF0F7F810BD6802002010
:10128000004400406F020020690200206C02002030
:10129000E0000020700200202DE9F047F4B00024A7
:1012A000A1464FF00F0A002500260027A046702116
:1012B00058A8FEF79EFF70213CA8FEF79AFF702108
:1012C00020A8FEF796FF702104A8FEF792FF0F20DA
:1012D000FFF7CEFE00BF62E004EB8400CE4911F8B8
:1012E0002000002859D104EB840001EB8000007C31
:1012F000012824D104EB840001EB8000407C70B90C
:1013000004EB840001EB800040884FF6FF7101EA96
:10131000401058A921F81500681C45B23DE004EBC7
:101320008400BD4901EB800040884FF6FF7101EA5F
:1013300040103CA921F81600701C46B22DE004EBC9
:101340008400B54901EB8000007C022825D104EB24
:10135000840001EB8000407C70B904EB840001EB59
:10136000800040884FF6FF7101EA401020A921F863
:101370001700781C47B210E004EB8400A64901EB8B
:10138000800040884FF6FF7101EA401004A921F85F
:10139000180008F101004FFA80F8601C44B29F4821
:1013A0000078844298DB002409E0681E58A931F8CF
:1013B0001000291958AA22F81100601C44B2681EB6
:1013C000C11700EB91718910A0EB8101C1F10301FC
:1013D000A142EADC002409E0701E3CA931F81000AB
:1013E00031193CAA22F81100601C44B2701EC117CA
:1013F00000EB91718910A0EB8101C1F10301A142C1
:10140000EADC002409E0781E20A931F8100039191F
:1014100020AA22F81100601C44B2781EC11700EB0C
:1014200091718910A0EB8101C1F10301A142EADCB5
:1014300000240BE0A8F1010004A931F8100008EB2A
:10144000040104AA22F81100601C44B2A8F10100B2
:10145000C11700EB91718910A0EB8101C1F103016B
:10146000A142E7DC01208DF80B0000208DF80C0074
:1014700001208DF80D00002D30DD002427E009F05B
:10148000FF008DF80A0009F101004FFA80F9A00071
:1014900058A931F81000ADF80000A000401C31F848
:1014A0001000ADF80200A000801C31F81000ADF86B
:1014B0000400A000C01C31F81000ADF806000020A8
:1014C000ADF808006846FFF743FC601C44B2681E94
:1014D000C11700EB9171B4EBA10FD0DD002E30DD10
:1014E000002427E009F0FF008DF80A0009F101004F
:1014F0004FFA80F9A0003CA931F81000ADF80000C7
:10150000A000401C31F81000ADF80200A000801CC3
:1015100031F81000ADF80400A000C01C31F8100034
:10152000ADF806000120ADF808006846FFF710FC92
:10153000601C44B2701EC11700EB9171B4EBA10F97
:10154000D0DD002F30DD002427E00AF0FF008DF809
:101550000A000AF101004FFA80FAA00020A931F830
:101560001000ADF80000A000401C31F81000ADF8EC
:101570000200A000801C31F81000ADF80400A000AB
:10158000C01C31F81000ADF806000020ADF80800CE
:101590006846FFF7DDFB601C44B2781EC11700EB04
:1015A0009171B4EBA10FD0DDB8F1000F31DD002453
:1015B00027E00AF0FF008DF80A000AF101004FFA57
:1015C00080FAA00004A931F81000ADF80000A000D6
:1015D000401C31F81000ADF80200A000801C31F86A
:1015E0001000ADF80400A000C01C31F81000ADF8E8
:1015F00006000120ADF808006846FFF7A9FB601C53
:1016000044B2A8F10100C11700EB9171B4EBA10F36
:10161000CFDD74B0BDE8F087900200207802002092
:101620001CB50121084608F0A5F909220C210C4837
:1016300000F055FF09220D21094800F050FF4FF43A
:101640004050009002208DF804008DF80500002025
:101650008DF806006946024800F0F9FE1CBD000046
:101660000004024010B5012202210448FFF7F4FBF8
:10167000012210210148FFF7EFFB10BD0068004078
:1016800008B501208DF803008DF801008DF80200E7
:1016900040208DF80000684607F0DAFD01208DF843
:1016A00001008DF8020041208DF80000684607F027
:1016B000CFFD08BD70B505460C46012C03D1294667
:1016C00004480DF01BFA022C03D1294602480DF004
:1016D00015FA70BD006400400068004010B50E4966
:1016E0000E4800F051F9012814D10D48807A0D28D8
:1016F0000CD10B48C0790B4908700948007A487032
:101700000748407A88700120074908700249034859
:1017100000F010F910BD00000088001028600240A1
:10172000A02200202C0100202F01002010B52DED5B
:10173000028B3649364800F027F9012862D1354836
:1017400090ED010A10EE101A0846FEF732FF41EC48
:10175000180B314890ED001BB0EE410AF0EE610A23
:1017600053EC102B51EC180BFEF74EFD2B4A03C225
:10177000284890ED020A10EE101A0846FEF719FFED
:1017800041EC180B244890ED021BB0EE410AF0EE3C
:10179000610A53EC102B51EC180BFEF735FD1F4A74
:1017A000C2E902011B4890ED030A10EE101A084628
:1017B000FEF7FFFE41EC180B174890ED041BB0EE4E
:1017C000410AF0EE610A53EC102B51EC180BFEF7B6
:1017D0001BFD124AC2E90401104690ED041BB0EE55
:1017E000410AF0EE610A9FED0E1B53EC112B51ECF8
:1017F000100BFEF7B0FD094AC2E90601034904488F
:1018000000F098F8BDEC028B10BD000000802010A5
:1018100040600240C02200205823002018230020EE
:1018200006ED91AA46DF913F10B50749074800F041
:10183000ABF8012807D10449044800F07BF80021E7
:10184000024800F091F810BD008000185860024076
:1018500010B50749074800F097F8012807D1044957
:10186000044800F067F80021024800F07DF810BD40
:10187000208000207060024010B51649164800F024
:1018800083F8012824D100240BE0144830F8140018
:101890001349144A127801EBC20121F81400601CAC
:1018A000C4B2042CF1DB0F480078401C802806DB12
:1018B00000200C49087001200B49087004E0094819
:1018C0000078401C074908700249034800F032F8CC
:1018D00010BD00002080001010640240CE010020E6
:1018E00086230020D6010020CC01002010B5054938
:1018F000054800F049F8012803D10249024800F0E8
:1019000019F810BD008020104064024010B507494E
:10191000074800F039F8012807D10449044800F0CD
:1019200009F80021024800F01FF810BD00802020B7
:10193000A06402400246094B9A4201D2084801E0E5
:101940000648103801F000531BB1064B0B40C36032
:1019500002E0044B0B4083607047000010640240BB
:10196000006002407D0F7D0F21B1026842F001024C
:10197000026003E0026822F0010202607047014643
:10198000486880B27047000070B50246002000240D
:101990000025124EB24201D2114B01E00F4B103B19
:1019A000104E0E4036B11E2606EAD124166806EA0D
:1019B000040502E0566906F0800501F000560EB1FC
:1019C0005C6800E01C68084E344004EA010616B169
:1019D0000DB1012000E0002070BD00001064024045
:1019E000006002403C0F3C0F7D0F7D0F10B501F0F1
:1019F00080034BB122B1436943F08003436103E0AC
:101A0000436923F08003436180290BD02AB1036826
:101A100001F01E042343036004E0036801F01E0488
:101A2000A343036010BD000010B500220268134BF1
:101A30001A40CC680B6823434C6923438C692343C9
:101A4000CC6923430C6A23434C6A23438C6A2343A7
:101A50004C6B23438C6B23431A430260426922F090
:101A60000702D1E90B3423431A4342610B694360F7
:101A70004B6883608B68C36010BD00003F801CF022
:101A8000416070477047000010B52DED108B82B09B
:101A9000B0EE408AF0EE608A04469FED650BB0EE32
:101AA000409AF0EE609A9FED620BB0EE40AAF0EE25
:101AB00060AA9FED5F0BB0EE40BAF0EE60BA9FED0A
:101AC0005C0B8DED000B94ED021BB0EE410AF0EEC5
:101AD000610A53EC102B9FED581B51EC110BFEF7D4
:101AE000ACFC41EC1E0B9FED540B53EC102BFEF79E
:101AF0008BFB41EC1D0B94ED041BB0EE410AF0EEA4
:101B0000610A53EC102BFEF77FFB41EC1C0B94EDAC
:101B1000001BB0EE410AF0EE610A53EC102BFEF709
:101B20001AFC41EC190B94ED041BB0EE410AF0EEE7
:101B3000610A53EC102B9FED421B51EC110BFEF789
:101B40000AFC41EC1D0B9FED3C0B53EC102BFEF7F8
:101B50005BFB41EC1C0B94ED001BB0EE410AF0EE78
:101B6000610A51EC100B81F0004141EC1E0B53EC6B
:101B70001C2BFEF7F0FB41EC1A0B94ED042BB0EE9E
:101B8000420AF0EE620A94ED002BB0EE421AF0EE3B
:101B9000621A53EC102B51EC110BFEF7DCFB41ECFD
:101BA0001B0B294890ED000B53EC102B51EC1B0B39
:101BB000FEF7D1FB41EC1C0B244890ED000B53ECDD
:101BC000102B51EC1A0BFEF7C6FB41EC1E0B53EC2D
:101BD000192B51EC180BFEF7BEFB41EC1F0B53EC1D
:101BE0001E2BFEF711FB41EC1D0B53EC1C2BFEF7DB
:101BF0000BFBCDE900019DED000B53EC102B1448BD
:101C000090ED000B51EC100BFEF7FEFA104A03C2E8
:101C10000E4890ED000B0C4880ED000B0B4880ED5A
:101C2000008B0B4890ED000B02B0BDEC108B10BD8B
:101C30000000000000000000000000000000F03F75
:101C40000000000000000040482200204022002048
:101C50005022002010B5042000F022F9012810D1F4
:101C60000A200DF001FC0748006838B906480068F2
:101C700008B9012000E0002003490860042000F0BA
:101C800009F910BD08024242BC82434210B5082047
:101C900000F006F9012810D10A200DF0E5FB0748F5
:101CA000006838B90648006808B9012000E0002043
:101CB00003490860082000F0EDF810BD0C02424214
:101CC0008002444210B5102000F0EAF8012810D13B
:101CD0000A200DF0C9FB0748006838B906480068BB
:101CE00008B9012000E0002003490860102000F03E
:101CF000D1F810BD100242428402444210B52020A7
:101D000000F0CEF8012810D10A200DF0ADFB2248DA
:101D1000006838B92148006808B9012000E00020B7
:101D20001E490860202000F0B5F8402000F0B8F807
:101D3000012813D10A200DF097FB1748001D0068F9
:101D400048B91648001D006808B9012000E00020CD
:101D50001249091D0860402000F09CF8802000F026
:101D60009FF8012816D10A200DF07EFB0A480830A2
:101D7000006860B901200A49087007486C300068A3
:101D800008B9012000E0002003496C310860802080
:101D900000F080F810BD000014024442B8824342B3
:101DA000140000200EB502F0C1F80121880307F0ED
:101DB00021FE0221042007F03FFF0321042007F049
:101DC0003BFF0421084607F037FF0521082007F0F4
:101DD00033FF0621082007F02FFF0721082007F016
:101DE0002BFF1C20009000208DF804000C208DF8A3
:101DF000050001208DF80600684600F05DF8E0203F
:101E000000900C208DF80500684600F055F8FC2085
:101E100000F040F84FF4A06007F056FA08208DF863
:101E2000080003208DF8090000208DF80A00012029
:101E30008DF80B0002A807F00BFA09208DF80800B6
:101E400003208DF8090001208DF80A008DF80B00A1
:101E500002A807F0FDF90A208DF8080003208DF88C
:101E6000090002208DF80A0001208DF80B0002A85D
:101E700007F0EEF917208DF8080003208DF809000F
:101E80008DF80A0001208DF80B0002A807F0E0F998
:101E90000EBD00000149086070470000143C01407D
:101EA00001460020034A12680A400AB1012000E0FE
:101EB00000207047143C0140002123498279002A08
:101EC0003AD00A46126803689A430B461A600A1D04
:101ED000126803689A430B1D1A60027911440A685C
:101EE00003681A430A60184A0832126803689A4362
:101EF000154B08331A601A1D126803689A43124B77
:101F00000C331A604279102A0ED11A1F1268036826
:101F10001A430D4B08331A601A1D126803681A43DE
:101F2000094B0C331A600DE00749427911440A68E5
:101F300003681A430A6005E0027911440A680368DD
:101F40009A430A6070470000003C01407CB50026BF
:101F5000002006F0A1FFFF203B490870AC2048702C
:101F600000208870AC20C870002008720921374812
:101F7000FFF786FD01213548FFF7F6FC4FF6FF70AD
:101F800002F0E8F900203249087008F0B5FD0020A1
:101F90003049088030A018210B464FF49672CDE9E5
:101FA00000100621002006F089FD4CE02F4890F833
:101FB000200000F080052D484168002088472B480C
:101FC00090F8200000F0800050B14DB9274AD18A26
:101FD00090890AF043FC04460B2C0CD001260AE041
:101FE0002348007838B1002021490870214804783E
:101FF0000B2C00D001261EB30026052C02D0132C7A
:102000000CD100E07CBD1248007808B9012000E046
:1020100000200F49087008F06FFD00BF00BF08F0F6
:102020006BFD00200B4908800BA018210B464FF4D4
:102030009672CDE900100621002006F03FFD02E077
:1020400001200DF011FAB1E7E0220020706002409B
:10205000C80A00203A0100204E6F7720496E69744B
:1020600020436F6E7665727400000000400100200E
:10207000A0000020C00000207CB50026FF208F4972
:102080000870AC20487001208870AC20C870002017
:10209000087209218A48FFF7F3FC01218848FFF7FD
:1020A00063FC4FF6FF7002F055F900208549087077
:1020B00008F022FD00208449088084A018210B46E6
:1020C0004FF49672CDE900100621002006F0F6FCD0
:1020D00082A018210B464FF49672CDE900102A21F8
:1020E000002006F0EBFC57E0824890F8200000F05A
:1020F000800580484168002088477E4890F820008D
:1021000000F0800050B14DB97A4AD18A90890AF026
:10211000A5FB04460B2C0CD001260AE0764800787B
:1021200038B1002074490870744804780B2C00D032
:102130000126002E2DD00026052C00D17CBD132CAD
:102140000AD16048007808B9012000E000205D490C
:10215000087008F0D1FC00E01FE008F0CDFC002082
:102160005949088059A018210B464FF49672CDE9C1
:1021700000100621002006F0A1FC58A018210B46F3
:102180004FF49672CDE900102A21002006F096FC4B
:1021900002E001200DF068F9A6E700BF9FED580BA3
:1021A000594880ED000B594880ED000B9FED580B0E
:1021B000594880ED000B90ED002B534890ED001B2B
:1021C000524890ED000B08F025F908F095FC00202E
:1021D0003D49088051A018210B464FF49672CDE975
:1021E00000100621002006F069FC63E0414890F8E9
:1021F000200000F080053F484168002088473D48A6
:1022000090F8200000F0800050B14DB9394AD18AD1
:1022100090890AF023FB04460B2C0CD001260AE01F
:102220003548007838B100203349087033480478C5
:102230000B2C00D00126CEB30026052C00D17DE763
:10224000132C0AD11F48007808B9012000E00020B3
:102250001C49087008F050FC17E09FED290B2A4834
:1022600080ED000B294880ED000B9FED250B2A48DF
:1022700080ED000B90ED002B234890ED001B2348D0
:1022800090ED000B08F0C6F815E008F035FC0020D2
:102290000D49088021A018210B464FF49672CDE914
:1022A00000100621002006F009FC03E0FFE70120F2
:1022B0000DF0DAF89AE700BF00BF3FE7E022002008
:1022C00070600240C80A00203A0100204E6F77205B
:1022D000496E697420526164697573005072657348
:1022E0007320616E79206B657920746F207374613F
:1022F0007274000040010020A0000020C0000020F7
:102300000000000000000000E8010020E0010020C3
:102310000000000000006940F00100205072657369
:102320007320616E79206B657920746F2073746FF0
:102330007000000051B18200A2F1C042126842F068
:1023400001038200A2F1C042136009E08200A2F101
:10235000C0421268034B1A408300A3F1C0431A60C5
:1023600070470000FEFF0F00D0E901121143C26860
:102370001143026911434269114382691143C269E1
:102380001143026A1143426A1143826A1143C26ACD
:102390001143026B114302689200A2F1C042116026
:1023A000816808290BD101688900A1F1C041096841
:1023B00041F0400201688900A1F1C0410A60416B0F
:1023C0000968426B526841EA0211426B926841EA25
:1023D0000221426B928941EA0241426B128A41EA30
:1023E0000251426B127D41EA0261426B92691143D4
:1023F0000268521C9200A2F1C0421160C16AB1F59C
:10240000804F1BD1816B0968826B526841EA0211CF
:10241000826B926841EA0221826B128A41EA025180
:10242000826B127D41EA0261826B926911430268FC
:102430009200A2F1C042C2F8041107E06FF07042AE
:1024400001688900A1F1C041C1F804217047F0B5CD
:102450000A4600210023002400BF3DE0012505FAC3
:1024600001F3156805EA03049C4234D105684F0066
:102470000326BE40B543056015794E00B540066899
:10248000354305601579012D02D01579022D16D13D
:1024900085684F000326BE40B543856055794E00E0
:1024A000B540866835438560456801268E40B54352
:1024B0004560456896798E40B6B235434560C5683B
:1024C0004F000326BE40B543C560D5794E00B540E8
:1024D000C6683543C560491C1029BFD3F0BDF0B5AF
:1024E000002300244D07ED0E02FA05F3CE1000F193
:1024F000200555F826504E07F70E0F26BE40B5436F
:10250000CF1000F1200646F82750CE1000F120052C
:1025100055F8265045EA0304CE1000F1200545F891
:102520002640F0BD10B5FF2009490870AA20487068
:1025300000208870AA20C870002008720921054870
:10254000FFF79EFA01210348FFF70EFA10BD0000C5
:10255000E02200207060024010B5FF200949087099
:10256000AA20487003208870AA20C8700020087232
:1025700009210548FFF784FA01210348FFF7F4F920
:1025800010BD0000E02200207060024010B52DED6B
:10259000028BF0EE408AB0EE608AFF201B49087083
:1025A000AA20487001208870AA20C8700846C0ED93
:1025B000018A0020087209211548FFF761FA0121FC
:1025C0001348FFF7D1F900BF1148FFF7D8F90028E9
:1025D000FAD15A200CF048FFFF200C490870AA20BD
:1025E000487002208870AA20C870084680ED018AD1
:1025F0000020087209210648FFF742FA0121044829
:10260000FFF7B2F9BDEC028B10BD0000E022002004
:102610007060024030B585B014216846FDF7E9FDD1
:102620000025002471E0002C30D13A480BF041F92C
:102630000DF804001DF80400AB2825D1012435480D
:102640000BF037F90DF804001DF80400BC2819D16F
:10265000022430480BF02DF90DF804001DF8040099
:10266000CD280DD103242B480BF023F90DF80400DD
:102670001DF80400DE2801D1042446E0002444E0D3
:10268000002442E0002440E000243EE021480BF01A
:1026900010F92146621CD4B20DF80100112C06D0AD
:1026A000122C0BD0132C10D0142C2CD114E0601E43
:1026B0001DF80000ED2800D0002425E0601E1DF864
:1026C0000000DC2800D000241EE0601E1DF8000081
:1026D000CB2800D0002417E0601E1DF80000BA28A7
:1026E00001D000240EE0012506E0202109480BF06E
:1026F000EFF8012800D100E0F7E700BF012106480C
:10270000FFF732F900E000BF00BF002D8BD005B00D
:1027100030BD0000004C00404060024001460E29E0
:1027200001DDFF207047022901DB072903DD0C29A9
:1027300003DB0E2901DC0120F4E70220F2E710B5EB
:102740002DED108B88B00446B0EE408AF0EE608A22
:10275000B0EE419AF0EE619AB0EE42AAF0EE62AAB3
:102760000020049005900690079053EC192B51EC33
:10277000190BFDF7F0FD41EC1C0B53EC182B51EC41
:10278000180BFDF7E8FD41EC1D0B53EC1C2BFDF77E
:102790003BFD41EC1B0B53EC1A2B51EC180BFDF7D6
:1027A000DAFD41EC1C0B53EC192B51EC180BFDF727
:1027B000D2FD41EC1F0B94ED021BB0EE410AF0EE8E
:1027C000610A53EC102BFDF7C6FD41EC1E0B53ECD8
:1027D000192B51EC190BFDF7BEFD41EC1F0B94EDCD
:1027E000001BB0EE410AF0EE610A53EC102BFDF72E
:1027F000B2FD53EC1E2BCDE900019DED000B51EC19
:10280000100BFDF7A2FD41EC1D0B53EC1C2BFDF74B
:102810009CFD53EC1B2BCDE902019DED020B51EC0D
:10282000100BFDF70AFECDE9040153EC192B51EC16
:10283000190BFDF790FD41EC1B0B53EC182B51ECE1
:10284000180BFDF788FD41EC1C0B53EC1B2BFDF71F
:10285000DBFC53EC1A2BCDE9020151EC190BFDF70F
:102860007AFD41EC1B0B53EC192B51EC180BFDF7C7
:1028700072FD41EC1F0B94ED001BB0EE410AF0EE2F
:10288000610A53EC102BFDF766FD41EC1D0B53EC78
:10289000182B51EC180BFDF75EFD41EC1F0B94ED6E
:1028A000021BB0EE410AF0EE610A53EC102BFDF76B
:1028B00052FD41EC1E0B53EC1D2BFDF746FD41EC88
:1028C0001C0B53EC1B2BFDF740FDCDE900019DEDEA
:1028D000020B53EC102B9DED000B51EC100BFDF790
:1028E000ACFDCDE906019DED040B9DED061B08B086
:1028F000BDEC108B10BD70B52DED0A8B84B0064673
:102900000C4615460020009001900290039094ED33
:10291000022BB0EE420AF0EE620A95ED022BB0EE09
:10292000421AF0EE621A53EC102B51EC110BFDF72A
:102930000CFD41EC180B95ED002BB0EE420AF0EEC9
:10294000620A94ED002BB0EE421AF0EE621A53ECDC
:10295000102B51EC110BFDF7F8FC41EC190B95ED28
:10296000022BB0EE420AF0EE620A94ED002BB0EEBC
:10297000421AF0EE621A53EC102B51EC110BFDF7DA
:10298000EAFC41EC1B0B94ED022BB0EE420AF0EE98
:10299000620A95ED002BB0EE421AF0EE621A53EC8B
:1029A000102B51EC110BFDF7D6FC41EC1C0B53EC3A
:1029B0001B2BFDF7CAFC41EC1A0BB0EE4A2AF0EED5
:1029C0006A2AB0EE491AF0EE691AB0EE480AF0EE43
:1029D000680A3046FFF7B3FE8DED000B8DED021B4C
:1029E0009DED000B9DED021B04B0BDEC0A8B70BD8C
:1029F00070B52DED0A8B04460D4695ED002BB0EE1B
:102A0000420AF0EE620A94ED002BB0EE421AF0EEAC
:102A1000621A53EC102B51EC110BFDF796FC41ECB4
:102A20001B0B95ED002BB0EE420AF0EE620A94ED1E
:102A3000002BB0EE421AF0EE621A53EC102B51EC60
:102A4000110BFDF782FC41EC1C0B53EC1B2BFDF72B
:102A500082FC41EC190B95ED022BB0EE420AF0EE30
:102A6000620A94ED022BB0EE421AF0EE621A53ECB9
:102A7000102B51EC110BFDF768FC41EC1B0B95ED95
:102A8000022BB0EE420AF0EE620A94ED022BB0EE99
:102A9000421AF0EE621A53EC102B51EC110BFDF7B9
:102AA00054FC41EC1C0B53EC1B2BFDF754FC41EC8C
:102AB0001A0B53EC1A2B51EC190BFDF7A5FB41EC4B
:102AC0001B0BB0EE4B0AF0EE6B0A0BF0A5FBB0EE61
:102AD000408AF0EE608AB0EE480AF0EE680ABDEC7B
:102AE0000A8B70BD70B52DED068B04460D4694ED36
:102AF000002BB0EE420AF0EE620A95ED002BB0EE2C
:102B0000421AF0EE621A53EC102B51EC110BFDF748
:102B10001CFC41EC190B94ED022BB0EE420AF0EED6
:102B2000620A95ED022BB0EE421AF0EE621A53ECF7
:102B3000102B51EC110BFDF708FC41EC1A0BB0EE19
:102B4000491AF0EE691AB0EE4A0AF0EE6A0A0BF082
:102B500097F9B0EE408AF0EE608AB0EE480AF0EEE7
:102B6000680ABDEC068B70BD0146022901DC01201C
:102B70007047052901DC0220FAE70B2901DC03205C
:102B8000F6E70E2901DC0920F2E7FF20F0E700005C
:102B900001460F2926D2DFE801F025080A0D0F11A2
:102BA000131517191B1D1F212300104870474FF0E4
:102BB0008040FBE70E48F9E70E48F7E70E48F5E7D7
:102BC0000E48F3E70E48F1E70E48EFE70E48EDE751
:102BD0000E48EBE70E48E9E70E48E7E70E48E5E761
:102BE0000E48E3E700BF00BF0020DFE70000014020
:102BF0000004004000080040000C004000100040AD
:102C00000014004000040140004001400044014025
:102C10000048014000180040001C00400020004017
:102C20000146012901DC01207047072904DC881EC8
:102C3000012202FA00F0F7E7082901DC0220F3E79D
:102C40000B2904DCC81D012202FA00F0ECE70E2972
:102C500004DC881F012202FA00F0E5E7FF20E3E729
:102C600070B5054605EB85000A49096801EB80004F
:102C7000A0F114042079022803D1064920690860D4
:102C800006E02079012802D1A068804700E000BF5B
:102C900070BD0000CC0A002000B52DED108BA3B054
:102CA00000201E901F90209021901A901B901C9045
:102CB0001D909FEDF90B8DED180B9FEDF70BB0EE0E
:102CC00040AAF0EE60AA9FEDF40BB0EE40BAF0EE31
:102CD00060BA9FEDF10BB0EE409AF0EE609A9FED76
:102CE000EE0B8DED160B9FEDEC0B8DED140B9FEDA8
:102CF000EA0BB0EE408AF0EE608A9FEDE70B8DEDB7
:102D0000120B9FEDE50BB0EE40FAF0EE60FA9FED8E
:102D1000E20B8DED100B9FEDE00B8DED0E0B9FED9B
:102D2000DE0B8DED0C0B9FEDDC0BB0EE40CAF0EE30
:102D300060CA9FEDD90BB0EE40DAF0EE60DA9FED9D
:102D4000D60BB0EE40EAF0EE60EAD54890ED000B0D
:102D50008DED1A0B90ED020B8DED1C0B90ED060B1B
:102D60008DED180BCF4AD0491AA8FFF7C4FD8DEDA1
:102D70001E0B8DED201B1EA9CB48FFF739FEB0EED0
:102D800040EAF0EE60EAC94890ED000B53EC102BDE
:102D900051EC1E0BFDF720FC49D8C54890ED000B07
:102DA00053EC102B9FEDC30B51EC100BFDF7D3FA36
:102DB00053EC1E2BCDE904019DED040B51EC100BDF
:102DC000FDF7C9FACDE90801BC4890ED000B53ECC2
:102DD000102B90ED000B51EC100BFDF7BCFACDE978
:102DE00006019DED080B53EC102B9DED060B51ECED
:102DF000100BFDF709FACDE90A019DED0A0B0BF066
:102E00000BFAB0EE409AF0EE609AAD4890ED000BF0
:102E100053EC102B51EC190BFDF7F6FB06D2A8482A
:102E200090ED000BB0EE409AF0EE609ADBE0A54822
:102E300090ED000B53EC102B51EC1E0BFDF7E4FB57
:102E400061D81EA99748FFF7D3FD8DED020B9E4870
:102E500090ED000B53EC102B9FED960B51EC100BEB
:102E6000FDF779FACDE900019DED020B53EC102B33
:102E70009DED000B51EC100BFDF76DFACDE906014D
:102E8000924890ED000B53EC102B90ED000B51ECA1
:102E9000100BFDF760FACDE904019DED060B53EC34
:102EA000102B9DED040B51EC100BFDF7ADF9CDE9A6
:102EB00008019DED080B0BF0AFF98DED0A0B9DEDB0
:102EC0000A0B51EC100B81F0004141EC190B7C48CE
:102ED00090ED000B51EC100B81F0004153EC192BDD
:102EE000CDE90A019DED0A0B51EC100BFDF78CFBAF
:102EF00079D2734890ED000B51EC100B81F000413A
:102F000041EC190B6FE0724890ED000B53EC102B65
:102F10006C4890ED000B51EC100BFDF716FA53ECDA
:102F20001E2BCDE90A019DED0A0B51EC100BFDF7AC
:102F300053FB51D81EA95B48FFF75AFD8DED040BDA
:102F4000614890ED000B53EC102B9FED5A0B51ECA8
:102F5000100BFDF700FACDE902019DED040B53ECD7
:102F6000102B9DED020B51EC100BFDF7F4F9CDE9A0
:102F70000801564890ED000B53EC102B90ED000B20
:102F800051EC100BFDF7E7F9CDE906019DED080BBB
:102F900053EC102B9DED060B51EC100BFDF734F9A3
:102FA000CDE90A019DED0A0B0BF036F9B0EE409A1F
:102FB000F0EE609A424890ED000B53EC102B51EC70
:102FC000190BFDF721FB0ED23D4890ED000BB0EE42
:102FD000409AF0EE609A06E0394890ED000BB0EEB2
:102FE000409AF0EE609A3B4890ED000B0BF040F8F1
:102FF000B0EE40DAF0EE60DA364890ED000B0BF000
:10300000A7F8B0EE40CAF0EE60CA53EC1D2B51ECAD
:10301000190BFDF7A0F941EC1A0B53EC1C2B51ECEA
:10302000190BFDF798F941EC1B0B9DED180B53ECB8
:10303000102B294890ED000B51EC100BFDF785F992
:1030400041EC180BB0EE480AF0EE680A0BF074F889
:103050008DED060B9FED210B53EC102B9DED060B18
:1030600051EC100BFDF771F9CDE908019DED080B4E
:103070000BF062F88DED0A0B9FED1A0B53EC102B41
:103080009DED0A0B51EC100BFDF7A6FA5ED2174826
:103090000078012840D135E0000000000000000069
:1030A00018230020602C0020502C0020F01F00204E
:1030B000102000200000000000000040C81F002079
:1030C000D81F0020E81F002018200020D01F00205B
:1030D000F81F0020E01F0020C01F0020112D4454C5
:1030E000FB210940486836551857B63F202000207C
:1030F0009FEDF20B53EC102B51EC180BFDF784F8FD
:1031000041EC180B1FED1C0B53EC102B51EC180B62
:10311000FDF762FA40D2EBE7EA4890F90000401C64
:10312000D0BB09E09FEDE50B53EC102B51EC180BD5
:10313000FDF70BF941EC180B1FED290B53EC102B8D
:1031400051EC180BFDF760FA26D2EBE71FED1D0BD3
:1031500053EC102B51EC180BFDF756FA09D29FEDEA
:10316000D70B53EC102B51EC180BFDF7EEF841EC9C
:10317000180B9FEDD50B53EC102B51EC180BFDF7F2
:103180002BFA09D29FEDCD0B53EC102B51EC180B01
:10319000FDF73AF841EC180BCD4890ED022BB0EE5C
:1031A000420AF0EE620A9DED1C2BB0EE421AF0EEE0
:1031B000621A53EC102B51EC110BFDF7C6F853ECCF
:1031C0001D2BCDE906019DED060B51EC100BFDF713
:1031D000C2F8CDE90A01BE4890ED002BB0EE420ADC
:1031E000F0EE620A9DED1A2BB0EE421AF0EE621A72
:1031F00053EC102B51EC110BFDF7A7F853EC1C2BE3
:10320000CDE906019DED060B51EC100BFDF7A3F87F
:10321000CDE908019DED0A0B53EC102B9DED080B39
:1032200051EC100BFDF791F8CDE91201A94909788D
:10323000490001EB4101A84A02EB0110B0EE480A37
:10324000F0EE680AFDF7ECFB8DED0A0B9FEDA30B8A
:1032500053EC102B9DED0A0B51EC100BFDF77BF896
:1032600041EC1F0B9B490978012202EB410101EB64
:103270004101994A02EB01109DED120BFEF704FC8F
:103280008DED100B9FED970B53EC102B51EC1F0B9A
:10329000FDF7BAF905D89FED930BB0EE40FAF0EECA
:1032A00060FA9FED920B53EC102B51EC1F0BFDF7C6
:1032B00093F905D89FED8D0BB0EE40FAF0EE60FA71
:1032C0009DED100B51EC100B81F0004153EC1C2BC9
:1032D000CDE90A019DED0A0B51EC100BFDF73BF80F
:1032E000CDE90E0153EC1D2B9DED100B51EC100B95
:1032F000FDF731F8CDE90C019DED0E0B53EC102BD1
:1033000051EC1A0BFCF780FF41EC1A0B9DED0C0BF6
:1033100053EC102B51EC1B0BFCF776FF41EC1B0B15
:1033200053EC1B2B51EC1B0BFDF715F853EC1A2B30
:10333000CDE9080151EC1A0BFDF70DF8CDE90601B6
:103340009DED080B53EC102B9DED060B51EC100B73
:10335000FCF75AFFCDE90A019DED0A0B0AF05CFF6C
:10336000B0EE409AF0EE609A624890ED000B53EC9C
:10337000102B51EC190BFDF747F929D253EC192BFF
:103380005C4890ED000B51EC100BFDF756F853EC38
:103390001A2BCDE90A019DED0A0B51EC100BFCF73D
:1033A000DAFF41EC1A0B53EC192B524890ED000B4D
:1033B00051EC100BFDF741F853EC1B2BCDE90A0142
:1033C0009DED0A0B51EC100BFCF7C5FF41EC1B0BFC
:1033D000494890ED061BB0EE410AF0EE610A0AF092
:1033E00047FEB0EE40DAF0EE60DA434890ED061B9F
:1033F000B0EE410AF0EE610A0AF0AAFEB0EE40CA51
:10340000F0EE60CA53EC1C2B51EC1B0BFCF7A3FF36
:1034100053EC1D2BCDE90A0151EC1A0BFCF79BFF75
:10342000CDE908019DED0A0B53EC102B9DED080B27
:1034300051EC100BFCF7E8FECDE9160153EC1D2B07
:1034400051EC1B0BFCF787FFCDE90A0151EC1A0B7D
:1034500081F0004153EC1C2BCDE906019DED060BDC
:1034600051EC100BFCF777FFCDE908019DED0A0B3D
:1034700053EC102B9DED080B51EC100BFCF7C4FE28
:10348000CDE914019DED160B1C4880ED000B9DED60
:10349000140B1B4880ED000B1A4880ED00FB90EDEB
:1034A000002B174890ED001B144890ED000B06F020
:1034B000B1FF23B0BDEC108B00BD0000112D4454B2
:1034C000FB21194020200020112D4454FB2109C06C
:1034D000502C00202120002040200020000000006F
:1034E00000408F400000000000C07240000000005B
:1034F00000C072C0D81F002018230020E001002067
:10350000E8010020F001002000BFFEE704210F4A7F
:103510001170002005E040F2E7310D4A22F810104A
:10352000401CB0F57A7FF6DB002009E000EB80025A
:10353000084B03EB82025288054B23F81200401C13
:10354000024909788842F1DB7047000078020020C8
:10355000E0020020900200202DE9F04F2DED0A8BB3
:1035600089B0064688464FF0000BE84890F800A066
:103570009FEDE70BB0EE409AF0EE609A142104A89C
:10358000FCF737FE20208DF8100001249FEDE00BA2
:10359000B0EE409AF0EE609A0120DC49087007F026
:1035A000ABFA182003464FF496720621CDE90008C5
:1035B000002005F023FA96ED000B8DED020BD6A04E
:1035C00018210B464FF49672CDE900102A210020F5
:1035D00005F074FA04A8D2A118221346CDE90021FF
:1035E00002904FF496724E21002005F067FA00BF5A
:1035F000CD4890F8200000F08009CB4841680020B9
:103600008847C94890F8200000F0800068B1B9F1FF
:10361000000F0AD1C44AD18A908908F0E5FE074616
:103620000B2F0ED04FF0010B0BE0C048007840B1DB
:103630000020BE490870BE4807780B2F01D04FF01C
:10364000010BBBF1000F76D04FF0000B142F12D2FC
:10365000DFE807F0110A121A22FD112A323A42114C
:10366000114A525A727E91FC0E2C04DA3122204605
:10367000641C04A90A542AE10E2C04DA32222046E2
:10368000641C04A90A5422E10E2C04DA33222046D9
:10369000641C04A90A541AE10E2C04DA34222046D0
:1036A000641C04A90A5412E10E2C04DA35222046C7
:1036B000641C04A90A540AE10E2C04DA36222046BE
:1036C000641C04A90A5402E10E2C04DA37222046B5
:1036D000641C04A90A54FAE00E2C04DA38222046AD
:1036E000641C04A90A54F2E00E2C04DA39222046A4
:1036F000641C04A90A54EAE00E2C04DA30222046A5
:10370000641C04A90A54E2E09FED810B53EC102BDA
:1037100051EC190BFCF760FF0CD10E2C0ADA2E22AB
:103720002046641C04A90A549FED820BB0EE409A17
:10373000F0EE609ACBE0E5E09DF81000202803D180
:103740002D208DF8100002E020208DF81000BEE042
:10375000012C0FDD601E04A9085C2E2805D19FED09
:103760006C0BB0EE409AF0EE609A0021601E0446A9
:1037700004AA1154ABE09FED668B9FED650BB0EE94
:10378000409AF0EE609A012551E004A8405D2E2891
:1037900006D19FED6A0BB0EE409AF0EE609A45E0DC
:1037A0009FED5B0B53EC102B51EC190BFCF714FF46
:1037B0001ED104A9485DFCF7D6FE41EC1B0B9FED22
:1037C0005F0B53EC102B51EC180BFCF7C4FD41ECD4
:1037D0001C0B53EC1B2BFCF717FD41EC1A0B9FED58
:1037E000590B53EC102BFCF7B0FD41EC180B1DE00E
:1037F00004A9495DA1F13000FCF7A4FE41EC1B0BCC
:1038000053EC192BFCF719FE41EC1A0B53EC182B57
:10381000FCF7FAFC41EC180B9FED480B53EC102B16
:1038200051EC190BFCF797FD41EC190B6D1CA542EF
:10383000ABDB9DF810002D2805D151EC180B81F061
:10384000004141EC180B86ED008B01E010E009E02F
:103850002E4880F800A007F04FF909B0BDEC0A8BA4
:10386000BDE8F08F294880F800A007F045F9F4E79B
:103870002648007808B9012000E00020234908709C
:1038800007F03AF9182003464FF496720621CDE965
:103890000008002005F0B2F896ED000B8DED020B4C
:1038A0002AA018210B464FF49672CDE900102A2168
:1038B000002005F003F927A018210B464FF496725B
:1038C000CDE900104E21002005F0F8F800BF00BF40
:1038D0004FF6FF70009021480088401E82B2662398
:1038E0004E21302000F0E0FF04A80EA1182213465C
:1038F000CDE9002102904FF496724E21302005F060
:10390000DDF875E601200BF0AFFD71E6C80A002076
:1039100000000000000000006F6C643A256C660037
:103920006E65773A2573000040010020A00000205A
:10393000C0000020000000000000F03F0000000078
:103940000000244000000000000048406F6C643A12
:10395000256400006E65773A00000000782300209F
:103960002DE9F04F8BB007468A4600200A90B148F7
:1039700000780990142104A8FCF73BFC20208DF866
:10398000100001240120AB49087007F0B5F8182099
:1039900003464FF496720621CDE9000A002005F097
:1039A0002DF8D7E90001CDE90201A3A018210B46AB
:1039B0004FF49672CDE900102A21002005F07EF820
:1039C00004A8A0A118221346CDE9002102904FF4CB
:1039D00096724E21002005F071F800BF9B4890F8C8
:1039E000200000F0800B99484168002088479748E4
:1039F00090F8200000F0800070B1BBF1000F0BD1F7
:103A0000924AD18A908908F0EFFC8046B8F10B0FFA
:103A100010D001200A900DE08D48007850B10020B0
:103A20008B4908708B4890F80080B8F10B0F01D0DB
:103A300001200A900A98002874D000200A90B8F15A
:103A4000140F12D2DFE808F0D60A121A22A1D62AE1
:103A5000323A42D6D64A52D65A666FA70E2C04DAAC
:103A600031222046641C04A90A54C3E00E2C04DA57
:103A700032222046641C04A90A54BBE00E2C04DA4E
:103A800033222046641C04A90A54B3E00E2C04DA45
:103A900034222046641C04A90A54ABE00E2C04DA3C
:103AA00035222146641C04A84254A3E00E2C04DAFB
:103AB00036222046641C04A90A549BE00E2C04DA2A
:103AC00037222046641C04A90A5493E00E2C04DA21
:103AD00038222046641C04A90A548BE00E2C04DA18
:103AE00039222046641C04A90A5483E00E2C04DA0F
:103AF00030222046641C04A90A547BE09DF8100083
:103B0000202803D12D208DF8100002E020208DF810
:103B100010006FE0012C04DD0021601E044604AAA1
:103B2000115467E081E000252E464FF0010918E0AE
:103B30000A224FF0000C2946A1FB020E06FB02E20E
:103B400005FB0C2304A911F80910624684461CEBFE
:103B5000010143EB0200B1F1300560F1000609F10B
:103B60000109A145E4DB9DF810002D2803D10022B6
:103B70006D4262EB0606C7E900562E4909980870A7
:103B800006F0BAFF0BB0BDE8F08F2A49099808701B
:103B900006F0B2FFF6E72748007808B9012000E0F8
:103BA00000202449087006F0A7FF182003464FF4B0
:103BB00096720621CDE9000A002004F01FFFD7E924
:103BC0000001CDE902011CA018210B464FF49672AA
:103BD000CDE900102A21002004F070FF1EA018215A
:103BE0000B464FF49672CDE900104E21002004F0F0
:103BF00065FF00BF00BF4FF6FF70009018480088B7
:103C0000401E82B266234E21302000F04DFE04A8F3
:103C10000DA118221346CDE9002102904FF49672AF
:103C20004E21302004F04AFFD8E601200BF01CFCA6
:103C3000D4E60000C80A00206F6C643A256C6C64FE
:103C4000000000006E65773A2573000040010020F7
:103C5000A0000020C00000206E65773A0000000040
:103C6000782300202DE9F04F89B0054689460020D1
:103C70000890A34890F800B0142103A8FCF7B9FA03
:103C800020208DF80C00012401209D49087006F0C9
:103C900033FF182003464FF496720621CDE9000940
:103CA000002004F0ABFE97A1182228681346CDE946
:103CB000002102904FF496722A21002004F0FEFEAB
:103CC00003A892A118221346CDE9002102904FF4D7
:103CD00096724E21002004F0F1FE00BF8D4890F84E
:103CE000200000F0800A8B484168002088478948FE
:103CF00090F8200000F0800068B1BAF1000F0AD1FE
:103D0000844AD18A908908F06FFB06460B2E0ED0AC
:103D1000012008900BE08048007840B100207E49E7
:103D200008707E4806780B2E01D001200890089874
:103D3000002873D000200890142E12D2DFE806F07D
:103D4000C10A121A228EC12A323A42C1C14A52C154
:103D50005A666F940E2C04DA31222046641C03A9A3
:103D60000A54AEE00E2C04DA32222046641C03A969
:103D70000A54A6E00E2C04DA33222046641C03A960
:103D80000A549EE00E2C04DA34222046641C03A957
:103D90000A5496E00E2C04DA35222046641C03A94E
:103DA0000A548EE00E2C04DA36222046641C03A945
:103DB0000A5486E00E2C04DA37222046641C03A93C
:103DC0000A547EE00E2C04DA38222046641C03A933
:103DD0000A5476E00E2C04DA39222046641C03A92A
:103DE0000A546EE00E2C04DA30222046641C03A92B
:103DF0000A5466E09DF80C00202803D12D208DF890
:103E00000C0002E020208DF80C005AE0012C04DDAB
:103E10000021601E044603AA115452E06CE0002702
:103E20004FF001080AE003A810F8080007EB87012B
:103E300000EB4100A0F1300708F10108A045F2DBDA
:103E40009DF80C002D2800D17F422F602C4880F86F
:103E500000B006F051FE09B0BDE8F08F284880F8A8
:103E600000B006F049FEF6E72548007808B90120C1
:103E700000E000202249087006F03EFE18200346AC
:103E80004FF496720621CDE90009002004F0B6FD3A
:103E90001CA1182228681346CDE9002102904FF496
:103EA00096722A21002004F009FE1DA018210B465D
:103EB0004FF49672CDE900104E21002004F0FEFD73
:103EC00000BF00BF4FF6FF70009017480088401EEB
:103ED00082B266234E21302000F0E6FC03A80CA13C
:103EE00018221346CDE9002102904FF496724E211C
:103EF000302004F0E3FDF1E601200BF0B5FAEDE629
:103F0000C80A00206F6C643A256400006E65773A39
:103F10002573000040010020A0000020C000002008
:103F20006E65773A00000000782300201CB501215F
:103F30004FF4887005F01EFD1C20009000208DF8C5
:103F4000040003208DF8050001208DF80700694664
:103F50000448FEF77CFAE020009069460248FEF72C
:103F600076FA1CBD00100240002002402DE9F0430B
:103F70002DED108B8FB081460C469FEDB90BB0EE46
:103F8000409AF0EE609A9FEDB60BB0EE40AAF0EECC
:103F900060AA9FEDB30BB0EE40EAF0EE60EAB248E3
:103FA00090ED000B8DED0A0B90ED020B8DED0C0BDF
:103FB00090ED060BB0EE40BAF0EE60BAAB490AA83D
:103FC000FEF790FD8DED080B53EC1B2BA84890EDF0
:103FD000000B51EC100BFCF7B8F941EC180BA3499E
:103FE0000AA8FEF705FD8DED060B09E09FEDA10B7C
:103FF00053EC102B51EC180BFCF7A7F941EC180B04
:104000009FED9E0B53EC102B51EC180BFCF7FCFAB8
:10401000ECD309E09FED970B53EC102B51EC180BF0
:10402000FCF7F2F841EC180B9FED960B53EC102BBC
:1040300051EC180BFCF7D0FAECD34846B0EE480A26
:10404000F0EE680AFCF7ECFCB0EE40FAF0EE60FA35
:104050009FED8E0B53EC102B51EC1F0BFCF77BF9F3
:1040600041EC1A0B20469DED060BFDF70DFDB0EE61
:1040700040EAF0EE60EA874890ED000B53EC102B1D
:1040800051EC1A0BFCF7C0FA07D2824890ED000BF6
:10409000B0EE40AAF0EE60AA16E07E4890ED000B6C
:1040A00051EC100B81F0004141EC1F0B53EC1A2B2B
:1040B000FCF7AAFA08D2774890ED000B51EC100BF0
:1040C00081F0004141EC1A0BB0EE4E9AF0EE6E9A80
:1040D000714890ED000B53EC102B51EC190BFCF7D1
:1040E00093FA07D26C4890ED000BB0EE409AF0EED8
:1040F000609A16E0684890ED000B51EC100B81F0CF
:10410000004141EC1F0B53EC192BFCF77DFA08D250
:10411000614890ED000B51EC100B81F0004141EC37
:10412000190B9DED080B09F0A3FFB0EE40FAF0EE7D
:1041300060FA53EC192B51EC1F0BFCF70CF941EC16
:104140001C0B9DED080B0AF003F8B0EE40FAF0EE00
:1041500060FA53EC192B51EC1F0BFCF7FCF841EC07
:104160001D0BB0EE4B0AF0EE6B0A09F0F1FFB0EE5A
:1041700040FAF0EE60FA53EC1D2B51EC1F0BFCF7EC
:10418000EAF8B0EE4B0AF0EE6B0ACDE9040109F053
:104190006FFFB0EE40FAF0EE60FA53EC1C2B51ECDE
:1041A0001F0BFCF7D8F8CDE902019DED040B53EC91
:1041B000102B9DED020B51EC100BFCF725F80E4671
:1041C0000546B0EE4B0AF0EE6B0A09F051FFB0EE77
:1041D00040FAF0EE60FA53EC1D2B51EC1F0BFCF78C
:1041E000BAF8B0EE4B0AF0EE6B0ACDE9040109F023
:1041F000AFFFB0EE40FAF0EE60FA51EC1C0B81F02C
:10420000004153EC1F2BCDE900019DED000B51EC5B
:10421000100BFCF7A0F8CDE902019DED040B53EC67
:10422000102B9DED020B51EC100BFBF7EDFF8846B8
:1042300007461A4860C01A48C0E90078194880ED5E
:1042400000AB90ED002B164890ED001B134890ED4D
:10425000000B06F0DFF80FB0BDEC108BBDE8F0836B
:10426000000000000000000018230020702C002037
:1042700028200020112D4454FB211940112D4454B5
:10428000FB210940112D4454FB2109C0000000000E
:1042900000408F403820002030200020E001002026
:1042A000E8010020F001002010B50446142C45D28E
:1042B000DFE804F0440A0E12161A4425292D314471
:1042C00044354444444444390120FEF7C9FC36E0F7
:1042D0000220FEF7C5FC32E00320FEF7C1FC2EE011
:1042E0000420FEF7BDFC2AE0174800681749884201
:1042F00004D015480068C068134908601FE0052015
:10430000FEF7AEFC1BE00620FEF7AAFC17E0072034
:10431000FEF7A6FC13E00820FEF7A2FC0FE0092040
:10432000FEF79EFC0BE00A48007808B9012000E087
:1043300000200749087006F0DFFB00BF00BF00BF88
:1043400006F096FE10BD0000CC0A0020D00A002026
:10435000C80A002070B50446002617480588408822
:1043600045431548808846F60401884216D1124814
:104370008079012812D100200F4988712A204881B4
:104380002B2088810021084604F086F901200A4983
:1043900088712B2048812A20888103E0002108466B
:1043A00004F07AF904F076FB002602E0034804806A
:1043B000761CAE42FAD370BD782300208000006CDA
:1043C00010B50446002C66D16C498871F020088035
:1043D0004FF4A07048800846808849F241318842F5
:1043E0000BD06648808846F60401884205D06348B1
:1043F000808845F2103188421AD12C205F4908810B
:104400002A2048812B2088810846808846F60401AE
:10441000884205D05948808845F21031884206D13B
:104420004FF4A070554908804FF4F0704880A1E027
:104430005248808845F21051884210D14FF43050D4
:104440004E4908814FF4285048814FF42C50888100
:104450004FF4F07008804FF4487048808AE0474875
:10446000808841F6631188420DD12C204349088190
:104470002B2048812A2088814FF4F07008804FF467
:104480004870488076E022203C49088120204881FD
:10449000212088816EE00120384988714FF4A07096
:1044A0000880F02048800846808849F241318842DF
:1044B00005D03248808845F21031884207D12C203F
:1044C0002E4908812A2048812B2088813FE02B48F3
:1044D000808846F60401884207D12C2027490881AC
:1044E0002B2048812A20888131E02448808845F2A9
:1044F0001051884210D14FF43050204908814FF4B8
:10450000285048814FF42C5088814FF4487008801F
:104510004FF4F07048801AE01848808841F6631123
:1045200088420DD12C20154908812A2048812B2052
:1045300088814FF4487008804FF4F070488006E09E
:1045400022200E49088121204881202088810B48A3
:10455000808846F60401884205D00848808845F2E4
:104560001031884206D14FF4F070044908804FF4AE
:10457000A0704880002003F019FF10BD78230020B0
:104580002DE9FF4F84B081468A46002003900290B7
:104590000698A0EB09050798A0EB0A06CDF8049051
:1045A000CDF800A0002D01DD012705E00DB90027A1
:1045B00002E04FF0FF376D42002E02DD4FF00108A0
:1045C00006E016B94FF0000802E04FF0FF387642DF
:1045D000B54201DD2C4600E034464FF0000B21E0EF
:1045E000009A91B2019A90B200F022F80398284400
:1045F00003900298304402900398A04205DD03988E
:10460000001B03900198384401900298A04205DDF8
:104610000298001B02900098404400900BF10100AA
:104620001FFA80FB601C8345DADD08B0BDE8F08F1F
:1046300030B504460D462946204604F02DF804F016
:1046400029FA024800880249088030BD3A0100205A
:104650008000006CF0B504460D4616461F462B46FA
:10466000324629462046FFF78BFF3B462246294625
:104670002046FFF785FF3B46324639462046FFF786
:104680007FFF3B46324629463046FFF779FFF0BDB3
:104690002DE9F04306460F46904600244546032088
:1046A000A0EB48093CE07A1B91B2321990B2FFF7B7
:1046B000BFFF3A1B91B2721990B2FFF7B9FF3A19D6
:1046C00091B2721990B2FFF7B3FF7A1991B2321911
:1046D00090B2FFF7ADFF7A1991B2321B90B2FFF79B
:1046E000A7FF3A1991B2721B90B2FFF7A1FF7A1B94
:1046F00091B2321B90B2FFF79BFF3A1B91B2721B33
:1047000090B2FFF795FF641CB9F1000F03DAA00027
:10471000801D814404E0601B80000A3081446D1ECE
:10472000AC42C0DDBDE8F08370B504460D461646C8
:104730005B48808849F24131884205D058488088DA
:1047400045F21031884214D15549488904F096F950
:10475000201204F087F9E0B204F084F95049888906
:1047600004F08CF9281204F07DF9E8B204F07AF92B
:104770008CE04B48808845F21051884220D148494E
:10478000488904F07BF9201204F06CF94449498906
:10479000491C88B204F072F9E0B204F063F94049B0
:1047A000888904F06BF9281204F05CF93C49898986
:1047B000491C88B204F062F9E8B204F053F965E0EC
:1047C0003748808841F66311884228D1344880797F
:1047D00020B933480088401E001B84B23049488904
:1047E00004F04CF9201204F03DF9E0B204F03AF97B
:1047F000201204F037F9E0B204F034F9284988892E
:1048000004F03CF9281204F02DF9E8B204F02AF97A
:10481000281204F027F9E8B204F024F936E0204821
:10482000808846F6040188421DD11D488079012800
:1048300004D11B480088401E001B84B218494889D7
:1048400004F01CF9201204F00DF9E0B204F00AF9AA
:104850001349888904F012F9281204F003F9E8B228
:1048600004F000F912E00E488079012804D10C48C8
:104870000088401E001B84B209494889214604F083
:1048800013F907498889294604F00EF9044800897C
:10489000044908804FF0D840A0F8806070BD000047
:1048A000782300207E00006C2DE9FC4F05460E4663
:1048B00017469846DDF82C90002001902748808804
:1048C00046F60401884229D124488079012825D15F
:1048D000AB46354621480088C01B401E86B247467D
:1048E0001E480088A0EB0B00401E1FFA80F8002035
:1048F0001A4988712A2048812B20888143463A46EC
:1049000031462846CDF80090FFF7CEFF012013492D
:1049100088712B2048812A2088811DE0781B401C4B
:1049200080B20190344615E02146284603F0B4FEDB
:1049300004F0B0F84FF0000A07E04FF0D840A0F8BC
:1049400080900AF101001FFA80FA01988245F4DB99
:10495000601C84B24445E7DDBDE8FC8F782300206D
:1049600000B5A1B0002020900121802005F002F8C0
:1049700001217A2004F0FEFF0121084605F00AF823
:104980004FF400701E9001208DF87C0000208DF8FF
:104990007E0002208DF87D0001208DF87F001EA989
:1049A000FE48FDF754FD4FF400401E9001208DF8A5
:1049B0007C0000208DF87E0002208DF87D00012013
:1049C0008DF87F001EA9F648FDF741FD4CF23370CB
:1049D0001E9002208DF87C0000208DF87E000320C0
:1049E0008DF87D0001208DF87F001EA9ED48FDF7B0
:1049F0002EFD4FF680701E9002208DF87C00002066
:104A00008DF87E0003208DF87D0001208DF87F0059
:104A10001EA9E548FDF71BFD4FF480501E900220B3
:104A20008DF87C0000208DF87E0003208DF87D003D
:104A300001208DF87F001EA9DC48FDF708FD4FF42A
:104A400080501E9002208DF87C0000208DF87E00A2
:104A500003208DF87D0001208DF87F001EA9D44829
:104A6000FDF7F5FC0C220021CE48FDF738FD0C22A5
:104A70000121CC48FDF733FD0C220421C948FDF784
:104A80002EFD0C220521C748FDF729FD0C22082127
:104A9000C448FDF724FD0C220921C248FDF71FFD83
:104AA0000C220A21BF48FDF71AFD0C220E21BD4839
:104AB000FDF715FD0C220F21BA48FDF710FD0C2261
:104AC0000721B948FDF70BFD0C220821B648FDF778
:104AD00006FD0C220921B448FDF701FD0C220A2134
:104AE000B148FDF7FCFC0C220B21AF48FDF7F7FCA9
:104AF0000C221146AC48FDF7F2FC0C220D21AA480D
:104B0000FDF7EDFC0C220E21A748FDF7E8FC0C2276
:104B10000F21A548FDF7E3FC0C221146A348FDF741
:104B2000DEFC0C221146A248FDF7D9FC0F200890AC
:104B3000002009903C200A9000200B900C900D90D2
:104B40000E90092001900020029008200390002080
:104B5000049005900690079006200F90002010907A
:104B60001190102012900020139015901490169020
:104B700017904FF480501890002019904FF4804007
:104B80001A9000201B9008A81C9001A81D900FA847
:104B9000FDF7EAFB01210620FDF7CCFB03F0C6FB85
:104BA00032200AF061FC0121002003F07DFF322059
:104BB0000AF05AFC002003F0ADFB7E4988800846CD
:104BC0008088FF280ADB084680884FF6FF718842FC
:104BD00004D078488088B0F5134F7CD1D32003F0FF
:104BE0004DFF03F08DFB7349888003F089FB714909
:104BF000888003F085FB6F498880084680884FF6DF
:104C0000FF7101EA00206B49888003F079FB694954
:104C100089880843674988800846808849F241317D
:104C2000884258D0BF2003F029FF03F069FB614997
:104C3000888003F065FB5F49888003F061FB5D4974
:104C4000888003F05DFB5B498880084680884FF6CA
:104C5000FF7101EA00205749888003F051FB554954
:104C600089880843534988800846808846F60401AD
:104C700088427AD0D42003F001FF03F041FB4D4974
:104C8000888003F03DFB4B49888003F039FB49499C
:104C90008880084680884FF6FF7101EA0020454968
:104CA000888003F02DFB4349898808434149888067
:104CB0000846808845F21031884256D04FF45A4059
:104CC00003F0DCFE03F01CFB3A4988804FF45B40A4
:104CD00003F0D4FE00E048E003F012FB3549888081
:104CE000084680884FF6FF7101EA0020314988802C
:104CF0004FF45C4003F0C2FE03F002FB2D498988AB
:104D000008432C49888008468088B0F5004F02D1BE
:104D100045F2105088802748808845F2105188421B
:104D200023D0A12003F0AAFE03F0EAFA21498880EB
:104D300003F0E6FA1F498880084680884FF6FF7125
:104D400001EA00201B49888003F0DAFA19498988B2
:104D50000843184988800846808845F26171884276
:104D600003D141F66310134988801248808849F2C4
:104D70004131884211D00F48808845F21031884275
:104D80000BD00C48808845F21051884205D0094864
:104D9000808841F6631188422CD10DE0001C02404E
:104DA00000040240000C02400010024000140240C7
:104DB0000018024078230020FE48006820F00F0011
:104DC0004FF02041C1F81C010846D0F81C0120F426
:104DD0007060C1F81C010846D0F81C0140F00300C7
:104DE000C1F81C010846D0F81C0140F40070C1F85D
:104DF0001C0128E0F048808846F60401884205D06E
:104E0000ED4880884CF2055188421CD1E948006881
:104E100020F00F004FF02041C1F81C010846D0F8E7
:104E20001C0120F47060C1F81C010846D0F81C0178
:104E300040F00A00C1F81C010846D0F81C0140F4FB
:104E40004060C1F81C01DC48808849F24131884249
:104E50007ED1CF2003F012FE002003F003FEC1201C
:104E600003F000FE302003F0FDFDED2003F006FE10
:104E7000642003F0F7FD032003F0F4FD122003F09B
:104E8000F1FD812003F0EEFDE82003F0F7FD852021
:104E900003F0E8FD102003F0E5FD7A2003F0E2FDC9
:104EA000CB2003F0EBFD392003F0DCFD2C2003F0D8
:104EB000D9FD002003F0D6FD342003F0D3FD0220FD
:104EC00003F0D0FDF72003F0D9FD202003F0CAFD48
:104ED000EA2003F0D3FD002003F0C4FD002003F01E
:104EE000C1FDC02003F0CAFD1B2003F0BBFDC120A3
:104EF00003F0C4FD012003F0B5FDC52003F0BEFDA5
:104F0000302003F0AFFD302003F0ACFDC72003F0EC
:104F1000B5FDB72003F0A6FD362003F0AFFD482015
:104F200003F0A0FD3A2003F0A9FD552003F09AFDFF
:104F3000B12003F0A3FD002003F094FD1A2003F03C
:104F400091FDB62003F09AFD0A2003F08BFD00E0EE
:104F500097E0A22003F086FDF22003F08FFD0020F1
:104F600003F080FD262003F089FD012003F07AFD87
:104F7000E02003F083FD0F2003F074FD2A2003F0EE
:104F800071FD282003F06EFD082003F06BFD0E205C
:104F900003F068FD082003F065FD542003F062FD76
:104FA000A92003F05FFD432003F05CFD0A2003F01D
:104FB00059FD0F2003F056FD002003F053FD0020A3
:104FC00003F050FD002003F04DFD002003F04AFDEA
:104FD000E12003F053FD002003F044FD152003F011
:104FE00041FD172003F03EFD072003F03BFD11209B
:104FF00003F038FD062003F035FD2B2003F032FDD1
:10500000562003F02FFD3C2003F02CFD052003F07B
:1050100029FD102003F026FD0F2003F023FD3F2083
:1050200003F020FD3F2003F01DFD0F2003F01AFDCB
:105030002B2003F023FD002003F014FD002003F0DB
:1050400011FD012003F00EFD3F2003F00BFD2A208F
:1050500003F014FD002003F005FD002003F002FD25
:10506000002003F0FFFCEF2003F0FCFC112003F014
:1050700005FD78200AF0F8F9292003F0FFFC03F081
:1050800022B94D48808846F6040188427ED111201D
:1050900003F0F4FC14200AF0E7F9D02003F0EEFC52
:1050A000072003F0DFFC422003F0DCFC1D2003F0AE
:1050B000D9FCD12003F0E2FC002003F0D3FC1A203D
:1050C00003F0D0FC092003F0CDFCD22003F0D6FC85
:1050D000012003F0C7FC222003F0C4FCC02003F031
:1050E000CDFC102003F0BEFC3B2003F0BBFC0020F5
:1050F00003F0B8FC022003F0B5FC112003F0B2FC71
:10510000C52003F0BBFC032003F0ACFCC82003F077
:10511000B5FC002003F0A6FC252003F0A3FC212011
:1051200003F0A0FC052003F09DFC002003F09AFC96
:105130000A2003F097FC652003F094FC252003F07F
:1051400091FC772003F08EFC502003F08BFC0F20A5
:1051500003F088FC002003F085FCF82003F08EFCAF
:10516000012003F07FFCFE2003F088FC002003F008
:1051700079FC022003F076FC202003F07FFC36202F
:1051800003F07CFC082003F06DFC00E02FE03A20E7
:1051900003F074FC552003F065FC2B2003F06EFC3B
:1051A000002003F05FFC002003F05CFC012003F012
:1051B00059FC03E01C0100A0782300203F2003F0ED
:1051C00051FC2A2003F05AFC002003F04BFC002085
:1051D00003F048FC012003F045FCDF2003F042FC13
:1051E00078200AF041F9292003F048FC47E7FE48FF
:1051F000808845F21031884240F07C87ED2003F032
:105200003DFC012003F02EFCFE2003F02BFCEE20E1
:1052100003F034FCDE2003F025FC212003F022FC07
:10522000F12003F02BFC012003F01CFCDF2003F035
:1052300025FC102003F016FCC42003F01FFC8F2077
:1052400003F010FCC62003F019FC002003F00AFC58
:10525000E22003F007FCE22003F004FCE22003F06C
:1052600001FCBF2003F00AFCAA2003F0FBFBB020E6
:1052700003F004FC0D2003F0F5FB002003F0F2FB2B
:105280000D2003F0EFFB002003F0ECFB112003F0F6
:10529000E9FB002003F0E6FB192003F0E3FB00200C
:1052A00003F0E0FB212003F0DDFB002003F0DAFB3C
:1052B0002D2003F0D7FB002003F0D4FB3D2003F0AA
:1052C000D1FB002003F0CEFB5D2003F0CBFB0020E0
:1052D00003F0C8FB5D2003F0C5FB002003F0C2FB18
:1052E000B12003F0CBFB802003F0BCFB002003F0D7
:1052F000B9FB8B2003F0B6FB002003F0B3FB962034
:1053000003F0B0FB002003F0ADFBB22003F0B6FBCE
:10531000002003F0A7FB002003F0A4FB022003F011
:10532000A1FB002003F09EFB032003F09BFB002069
:1053300003F098FBB32003F0A1FB002003F092FBE5
:10534000002003F08FFB002003F08CFB002003F013
:1053500089FB002003F086FB002003F083FB002084
:1053600003F080FB002003F07DFB002003F07AFBBC
:10537000002003F077FB002003F074FB002003F013
:1053800071FB002003F06EFB002003F06BFB00209C
:1053900003F068FB002003F065FB002003F062FBD4
:1053A000002003F05FFB002003F05CFB002003F013
:1053B00059FB002003F056FB002003F053FB0020B4
:1053C00003F050FB002003F04DFBB42003F056FB2C
:1053D0008B2003F047FB002003F044FB962003F0F2
:1053E00041FB002003F03EFBA12003F03BFB00202B
:1053F00003F038FBB52003F041FB022003F032FB41
:10540000002003F02FFB032003F02CFB002003F00F
:1054100029FB042003F026FB002003F023FBB62029
:1054200003F02CFB002003F01DFB002003F01AFB0F
:10543000B72003F023FB002003F014FB002003F04F
:1054400011FB3F2003F00EFB002003F00BFB5E205E
:1054500003F008FB002003F005FB642003F002FBCF
:10546000002003F0FFFA8C2003F0FCFA002003F088
:10547000F9FAAC2003F0F6FA002003F0F3FADC208E
:1054800003F0F0FA002003F0EDFA702003F0EAFADE
:10549000002003F0E7FA902003F0E4FA002003F084
:1054A000E1FAEB2003F0DEFA002003F0DBFADC2067
:1054B00003F0D8FA002003F0D5FAB82003F0DEFAA2
:1054C000002003F0CFFA002003F0CCFA002003F014
:1054D000C9FA002003F0C6FA002003F0C3FA002046
:1054E00003F0C0FA002003F0BDFA002003F0BAFA7E
:1054F000BA2003F0C3FA242003F0B4FA002003F02A
:10550000B1FA002003F0AEFA002003F0ABFAC1209C
:1055100003F0B4FA202003F0A5FA002003F0A2FA69
:10552000542003F09FFA002003F09CFAFF2003F0C0
:1055300099FA002003F096FAC22003F09FFA0A209D
:1055400003F090FA002003F08DFA042003F08AFAA9
:10555000002003F087FAC32003F090FA3C2003F008
:1055600081FA002003F07EFA3A2003F07BFA002053
:1055700003F078FA392003F075FA002003F072FA8C
:10558000372003F06FFA002003F06CFA3C2003F0A0
:1055900069FA002003F066FA362003F063FA00206F
:1055A00003F060FA322003F05DFA002003F05AFAAB
:1055B0002F2003F057FA002003F054FA2C2003F0B8
:1055C00051FA002003F04EFA292003F04BFA002094
:1055D00003F048FA262003F045FA002003F042FACF
:1055E000242003F03FFA01E078230020002003F09C
:1055F00039FA242003F036FA002003F033FA23208E
:1056000003F030FA002003F02DFA3C2003F02AFAD0
:10561000002003F027FA362003F024FA002003F0DC
:1056200021FA322003F01EFA002003F01BFA2F208B
:1056300003F018FA002003F015FA2C2003F012FAF8
:10564000002003F00FFA292003F00CFA002003F0E9
:1056500009FA262003F006FA002003F003FA2420BA
:1056600003F000FA002003F0FDF9242003F0FAF91A
:10567000002003F0F7F9232003F0F4F9002003F0F1
:10568000F1F9C42003F0FAF9622003F0EBF90020ED
:1056900003F0E8F9052003F0E5F9002003F0E2F952
:1056A000842003F0DFF9002003F0DCF9F02003F0A0
:1056B000D9F9002003F0D6F9182003F0D3F900201F
:1056C00003F0D0F9A42003F0CDF9002003F0CAF9CB
:1056D000182003F0C7F9002003F0C4F9502003F0AC
:1056E000C1F9002003F0BEF90C2003F0BBF9002043
:1056F00003F0B8F9172003F0B5F9002003F0B2F970
:10570000952003F0AFF9002003F0ACF9F32003F08B
:10571000A9F9002003F0A6F9E62003F0A3F9002080
:1057200003F0A0F9C52003F0A9F9322003F09AF99B
:10573000002003F097F9442003F094F9002003F0CF
:1057400091F9652003F08EF9002003F08BF97620A3
:1057500003F088F9002003F085F9882003F082F92E
:10576000002003F07FF9C62003F088F9202003F021
:1057700079F9002003F076F9172003F073F900207F
:1057800003F070F9012003F06DF9002003F06AF9CD
:10579000C72003F073F9002003F064F9002003F040
:1057A00061F9002003F05EF9002003F05BF9C820E6
:1057B00003F064F9002003F055F9002003F052F9DA
:1057C000002003F04FF9002003F04CF9C92003F04A
:1057D00055F9002003F046F9002003F043F90020BA
:1057E00003F040F9002003F03DF9002003F03AF9FE
:1057F000002003F037F9002003F034F9002003F013
:1058000031F9002003F02EF9002003F02BF90020DD
:1058100003F028F9002003F025F9002003F022F915
:10582000002003F01FF9002003F01CF9002003F012
:1058300019F9E02003F022F9162003F013F90020F3
:1058400003F010F91C2003F00DF9002003F00AF911
:10585000212003F007F9002003F004F9362003F0BB
:1058600001F9002003F0FEF8462003F0FBF80020C9
:1058700003F0F8F8522003F0F5F8002003F0F2F8F6
:10588000642003F0EFF8002003F0ECF87A2003F036
:10589000E9F8002003F0E6F88B2003F0E3F800209D
:1058A00003F0E0F8992003F0DDF8002003F0DAF8C7
:1058B000A82003F0D7F8002003F0D4F8B92003F0B3
:1058C000D1F8002003F0CEF8C42003F0CBF800207C
:1058D00003F0C8F8CA2003F0C5F8002003F0C2F8AE
:1058E000D22003F0BFF8002003F0BCF8D92003F069
:1058F000B9F8002003F0B6F8E02003F0B3F8002078
:1059000003F0B0F8F32003F0ADF8002003F0AAF89C
:10591000E12003F0B3F8162003F0A4F8002003F010
:10592000A1F81C2003F09EF8002003F09BF8222031
:1059300003F098F8002003F095F8362003F092F871
:10594000002003F08FF8452003F08CF8002003F0CE
:1059500089F8522003F086F8002003F083F86420D1
:1059600003F080F8002003F07DF87A2003F07AF845
:10597000002003F077F88B2003F074F8002003F088
:1059800071F8992003F06EF8002003F06BF8A8205E
:1059900003F068F8002003F065F8B92003F062F81E
:1059A000002003F05FF8C42003F05CF8002003F04F
:1059B00059F8CA2003F056F8002003F053F8D2201B
:1059C00003F050F8002003F04DF8D82003F04AF817
:1059D000002003F047F8E02003F044F8002003F033
:1059E00041F8F32003F03EF8002003F03BF8E220FA
:1059F00003F044F8052003F035F8002003F032F8F6
:105A00000B2003F02FF8002003F02CF81B2003F0EC
:105A100029F8002003F026F8342003F023F80020B2
:105A200003F020F8442003F01DF8002003F01AF8DA
:105A30004F2003F017F8002003F014F8612003F062
:105A400011F8002003F00EF8792003F00BF8002085
:105A500003F008F8882003F005F8002003F002F8AE
:105A6000972002F0FFFF002002F0FCFFA62002F0CA
:105A7000F9FF002002F0F6FFB72002F0F3FF00204C
:105A800002F0F0FFC22002F0EDFF002002F0EAFF7A
:105A9000C72002F0E7FF002002F0E4FFD12002F06F
:105AA000E1FF002002F0DEFFD62002F0DBFF002045
:105AB00002F0D8FFDD2002F0D5FF002002F0D2FF77
:105AC000F32002F0CFFF002002F0CCFFE32002F031
:105AD000D5FF052002F0C6FF002002F0C3FF0A2018
